{
  "contractName": "Voting",
  "abi": [
    {
      "inputs": [],
      "stateMutability": "nonpayable",
      "type": "constructor"
    },
    {
      "anonymous": false,
      "inputs": [
        {
          "indexed": true,
          "internalType": "address",
          "name": "previousOwner",
          "type": "address"
        },
        {
          "indexed": true,
          "internalType": "address",
          "name": "newOwner",
          "type": "address"
        }
      ],
      "name": "OwnershipTransferred",
      "type": "event"
    },
    {
      "anonymous": false,
      "inputs": [
        {
          "indexed": false,
          "internalType": "uint256",
          "name": "proposalId",
          "type": "uint256"
        }
      ],
      "name": "ProposalRegistered",
      "type": "event"
    },
    {
      "anonymous": false,
      "inputs": [
        {
          "indexed": false,
          "internalType": "address",
          "name": "voter",
          "type": "address"
        },
        {
          "indexed": false,
          "internalType": "uint256",
          "name": "proposalId",
          "type": "uint256"
        }
      ],
      "name": "Voted",
      "type": "event"
    },
    {
      "anonymous": false,
      "inputs": [
        {
          "indexed": false,
          "internalType": "address",
          "name": "voterAddress",
          "type": "address"
        }
      ],
      "name": "VoterRegistered",
      "type": "event"
    },
    {
      "anonymous": false,
      "inputs": [
        {
          "indexed": false,
          "internalType": "enum Voting.WorkflowStatus",
          "name": "previousStatus",
          "type": "uint8"
        },
        {
          "indexed": false,
          "internalType": "enum Voting.WorkflowStatus",
          "name": "newStatus",
          "type": "uint8"
        }
      ],
      "name": "WorkflowStatusChange",
      "type": "event"
    },
    {
      "inputs": [],
      "name": "owner",
      "outputs": [
        {
          "internalType": "address",
          "name": "",
          "type": "address"
        }
      ],
      "stateMutability": "view",
      "type": "function",
      "constant": true
    },
    {
      "inputs": [],
      "name": "renounceOwnership",
      "outputs": [],
      "stateMutability": "nonpayable",
      "type": "function"
    },
    {
      "inputs": [
        {
          "internalType": "address",
          "name": "newOwner",
          "type": "address"
        }
      ],
      "name": "transferOwnership",
      "outputs": [],
      "stateMutability": "nonpayable",
      "type": "function"
    },
    {
      "inputs": [],
      "name": "workflowStatus",
      "outputs": [
        {
          "internalType": "enum Voting.WorkflowStatus",
          "name": "",
          "type": "uint8"
        }
      ],
      "stateMutability": "view",
      "type": "function",
      "constant": true
    },
    {
      "inputs": [
        {
          "internalType": "address",
          "name": "_addr",
          "type": "address"
        }
      ],
      "name": "getVoter",
      "outputs": [
        {
          "components": [
            {
              "internalType": "bool",
              "name": "isRegistered",
              "type": "bool"
            },
            {
              "internalType": "bool",
              "name": "hasVoted",
              "type": "bool"
            },
            {
              "internalType": "uint256",
              "name": "votedProposalId",
              "type": "uint256"
            }
          ],
          "internalType": "struct Voting.Voter",
          "name": "",
          "type": "tuple"
        }
      ],
      "stateMutability": "view",
      "type": "function",
      "constant": true
    },
    {
      "inputs": [
        {
          "internalType": "uint256",
          "name": "_id",
          "type": "uint256"
        }
      ],
      "name": "getOneProposal",
      "outputs": [
        {
          "components": [
            {
              "internalType": "string",
              "name": "description",
              "type": "string"
            },
            {
              "internalType": "uint256",
              "name": "voteCount",
              "type": "uint256"
            }
          ],
          "internalType": "struct Voting.Proposal",
          "name": "",
          "type": "tuple"
        }
      ],
      "stateMutability": "view",
      "type": "function",
      "constant": true
    },
    {
      "inputs": [
        {
          "internalType": "address",
          "name": "_addr",
          "type": "address"
        }
      ],
      "name": "addVoter",
      "outputs": [],
      "stateMutability": "nonpayable",
      "type": "function"
    },
    {
      "inputs": [
        {
          "internalType": "string",
          "name": "_desc",
          "type": "string"
        }
      ],
      "name": "addProposal",
      "outputs": [],
      "stateMutability": "nonpayable",
      "type": "function"
    },
    {
      "inputs": [
        {
          "internalType": "uint256",
          "name": "_proposalId",
          "type": "uint256"
        }
      ],
      "name": "setVote",
      "outputs": [],
      "stateMutability": "nonpayable",
      "type": "function"
    },
    {
      "inputs": [],
      "name": "startProposalsRegistering",
      "outputs": [],
      "stateMutability": "nonpayable",
      "type": "function"
    },
    {
      "inputs": [],
      "name": "endProposalsRegistering",
      "outputs": [],
      "stateMutability": "nonpayable",
      "type": "function"
    },
    {
      "inputs": [],
      "name": "startVotingSession",
      "outputs": [],
      "stateMutability": "nonpayable",
      "type": "function"
    },
    {
      "inputs": [],
      "name": "endVotingSession",
      "outputs": [],
      "stateMutability": "nonpayable",
      "type": "function"
    },
    {
      "inputs": [],
      "name": "tallyVotes",
      "outputs": [],
      "stateMutability": "nonpayable",
      "type": "function"
    },
    {
      "inputs": [],
      "name": "getWinningProposalID",
      "outputs": [
        {
          "internalType": "uint256",
          "name": "",
          "type": "uint256"
        }
      ],
      "stateMutability": "view",
      "type": "function",
      "constant": true
    }
  ],
  "bytecode": "0x60806040523480156200001157600080fd5b506200003262000026620000cc60201b60201c565b620000d460201b60201c565b6001600460003373ffffffffffffffffffffffffffffffffffffffff1673ffffffffffffffffffffffffffffffffffffffff16815260200190815260200160002060000160006101000a81548160ff0219169083151502179055507fb6be2187d059cc2a55fe29e0e503b566e1e0f8c8780096e185429350acffd3dd33604051620000be9190620001dd565b60405180910390a1620001fa565b600033905090565b60008060009054906101000a900473ffffffffffffffffffffffffffffffffffffffff169050816000806101000a81548173ffffffffffffffffffffffffffffffffffffffff021916908373ffffffffffffffffffffffffffffffffffffffff1602179055508173ffffffffffffffffffffffffffffffffffffffff168173ffffffffffffffffffffffffffffffffffffffff167f8be0079c531659141344cd1fd0a4f28419497f9722a3daafe3b4186f6b6457e060405160405180910390a35050565b600073ffffffffffffffffffffffffffffffffffffffff82169050919050565b6000620001c58262000198565b9050919050565b620001d781620001b8565b82525050565b6000602082019050620001f46000830184620001cc565b92915050565b612693806200020a6000396000f3fe608060405234801561001057600080fd5b50600436106100f55760003560e01c8063a7bfab1611610097578063d88b716e11610066578063d88b716e14610200578063ee74c6781461021e578063f2fde38b14610228578063f4ab9adf14610244576100f5565b8063a7bfab16146101b2578063c7038a4e146101bc578063c88af42f146101c6578063d4f50f98146101d0576100f5565b8063715018a6116100d3578063715018a61461013c5780638da5cb5b14610146578063a1edffa214610164578063a2788cce14610182576100f5565b8063230796ae146100fa5780632fdae3c514610116578063378a217814610132575b600080fd5b610114600480360381019061010f919061156b565b610260565b005b610130600480360381019061012b91906115fd565b6105b7565b005b61013a61083a565b005b610144610920565b005b61014e610934565b60405161015b919061168b565b60405180910390f35b61016c61095d565b604051610179919061171d565b60405180910390f35b61019c6004803603810190610197919061156b565b610970565b6040516101a99190611814565b60405180910390f35b6101ba610ad7565b005b6101c4610bbd565b005b6101ce610d38565b005b6101ea60048036038101906101e59190611862565b610e1d565b6040516101f791906118ec565b60405180910390f35b610208610f45565b6040516102159190611916565b60405180910390f35b610226611090565b005b610242600480360381019061023d9190611862565b611176565b005b61025e60048036038101906102599190611862565b6111f9565b005b600460003373ffffffffffffffffffffffffffffffffffffffff1673ffffffffffffffffffffffffffffffffffffffff16815260200190815260200160002060000160009054906101000a900460ff166102ef576040517f08c379a00000000000000000000000000000000000000000000000000000000081526004016102e69061198e565b60405180910390fd5b60036005811115610303576103026116a6565b5b600260009054906101000a900460ff166005811115610325576103246116a6565b5b14610365576040517f08c379a000000000000000000000000000000000000000000000000000000000815260040161035c90611a20565b60405180910390fd5b60011515600460003373ffffffffffffffffffffffffffffffffffffffff1673ffffffffffffffffffffffffffffffffffffffff16815260200190815260200160002060000160019054906101000a900460ff161515036103fb576040517f08c379a00000000000000000000000000000000000000000000000000000000081526004016103f290611a8c565b60405180910390fd5b6003805490508110610442576040517f08c379a000000000000000000000000000000000000000000000000000000000815260040161043990611af8565b60405180910390fd5b80600460003373ffffffffffffffffffffffffffffffffffffffff1673ffffffffffffffffffffffffffffffffffffffff168152602001908152602001600020600101819055506001600460003373ffffffffffffffffffffffffffffffffffffffff1673ffffffffffffffffffffffffffffffffffffffff16815260200190815260200160002060000160016101000a81548160ff021916908315150217905550600381815481106104f8576104f7611b18565b5b9060005260206000209060020201600101600081548092919061051a90611b76565b919050555060036001548154811061053557610534611b18565b5b9060005260206000209060020201600101546003828154811061055b5761055a611b18565b5b906000526020600020906002020160010154111561057b57806001819055505b7f4d99b957a2bc29a30ebd96a7be8e68fe50a3c701db28a91436490b7d53870ca433826040516105ac929190611bbe565b60405180910390a150565b600460003373ffffffffffffffffffffffffffffffffffffffff1673ffffffffffffffffffffffffffffffffffffffff16815260200190815260200160002060000160009054906101000a900460ff16610646576040517f08c379a000000000000000000000000000000000000000000000000000000000815260040161063d9061198e565b60405180910390fd5b6001600581111561065a576106596116a6565b5b600260009054906101000a900460ff16600581111561067c5761067b6116a6565b5b146106bc576040517f08c379a00000000000000000000000000000000000000000000000000000000081526004016106b390611c33565b60405180910390fd5b6040516020016106cb90611c79565b6040516020818303038152906040528051906020012082826040516020016106f4929190611cd5565b604051602081830303815290604052805190602001200361074a576040517f08c379a000000000000000000000000000000000000000000000000000000000815260040161074190611d6b565b60405180910390fd5b6107526114ec565b82828080601f016020809104026020016040519081016040528093929190818152602001838380828437600081840152601f19601f820116905080830192505050505050508160000181905250600381908060018154018082558091505060019003906000526020600020906002020160009091909190915060008201518160000190816107e09190611fc6565b506020820151816001015550507f92e393e9b54e2f801d3ea4beb0c5e71a21cc34a5d34b77d0fb8a3aa1650dc18f60016003805490506108209190612098565b60405161082d9190611916565b60405180910390a1505050565b6108426113a2565b60046005811115610856576108556116a6565b5b600260009054906101000a900460ff166005811115610878576108776116a6565b5b146108b8576040517f08c379a00000000000000000000000000000000000000000000000000000000081526004016108af9061213e565b60405180910390fd5b6005600260006101000a81548160ff021916908360058111156108de576108dd6116a6565b5b02179055507f0a97a4ee45751e2abf3e4fc8946939630b11b371ea8ae39ccdc3056e98f5cc3f6004600560405161091692919061215e565b60405180910390a1565b6109286113a2565b6109326000611420565b565b60008060009054906101000a900473ffffffffffffffffffffffffffffffffffffffff16905090565b600260009054906101000a900460ff1681565b6109786114ec565b600460003373ffffffffffffffffffffffffffffffffffffffff1673ffffffffffffffffffffffffffffffffffffffff16815260200190815260200160002060000160009054906101000a900460ff16610a07576040517f08c379a00000000000000000000000000000000000000000000000000000000081526004016109fe9061198e565b60405180910390fd5b60038281548110610a1b57610a1a611b18565b5b9060005260206000209060020201604051806040016040529081600082018054610a4490611de9565b80601f0160208091040260200160405190810160405280929190818152602001828054610a7090611de9565b8015610abd5780601f10610a9257610100808354040283529160200191610abd565b820191906000526020600020905b815481529060010190602001808311610aa057829003601f168201915b505050505081526020016001820154815250509050919050565b610adf6113a2565b60036005811115610af357610af26116a6565b5b600260009054906101000a900460ff166005811115610b1557610b146116a6565b5b14610b55576040517f08c379a0000000000000000000000000000000000000000000000000000000008152600401610b4c90611a20565b60405180910390fd5b6004600260006101000a81548160ff02191690836005811115610b7b57610b7a6116a6565b5b02179055507f0a97a4ee45751e2abf3e4fc8946939630b11b371ea8ae39ccdc3056e98f5cc3f60036004604051610bb392919061215e565b60405180910390a1565b610bc56113a2565b60006005811115610bd957610bd86116a6565b5b600260009054906101000a900460ff166005811115610bfb57610bfa6116a6565b5b14610c3b576040517f08c379a0000000000000000000000000000000000000000000000000000000008152600401610c32906121f9565b60405180910390fd5b6001600260006101000a81548160ff02191690836005811115610c6157610c606116a6565b5b0217905550610c6e6114ec565b6040518060400160405280600781526020017f47454e4553495300000000000000000000000000000000000000000000000000815250816000018190525060038190806001815401808255809150506001900390600052602060002090600202016000909190919091506000820151816000019081610ced9190611fc6565b506020820151816001015550507f0a97a4ee45751e2abf3e4fc8946939630b11b371ea8ae39ccdc3056e98f5cc3f60006001604051610d2d92919061215e565b60405180910390a150565b610d406113a2565b60016005811115610d5457610d536116a6565b5b600260009054906101000a900460ff166005811115610d7657610d756116a6565b5b14610db6576040517f08c379a0000000000000000000000000000000000000000000000000000000008152600401610dad9061228b565b60405180910390fd5b60028060006101000a81548160ff02191690836005811115610ddb57610dda6116a6565b5b02179055507f0a97a4ee45751e2abf3e4fc8946939630b11b371ea8ae39ccdc3056e98f5cc3f60016002604051610e1392919061215e565b60405180910390a1565b610e25611506565b600460003373ffffffffffffffffffffffffffffffffffffffff1673ffffffffffffffffffffffffffffffffffffffff16815260200190815260200160002060000160009054906101000a900460ff16610eb4576040517f08c379a0000000000000000000000000000000000000000000000000000000008152600401610eab9061198e565b60405180910390fd5b600460008373ffffffffffffffffffffffffffffffffffffffff1673ffffffffffffffffffffffffffffffffffffffff1681526020019081526020016000206040518060600160405290816000820160009054906101000a900460ff161515151581526020016000820160019054906101000a900460ff161515151581526020016001820154815250509050919050565b60003373ffffffffffffffffffffffffffffffffffffffff16610f66610934565b73ffffffffffffffffffffffffffffffffffffffff161480610fd45750600460003373ffffffffffffffffffffffffffffffffffffffff1673ffffffffffffffffffffffffffffffffffffffff16815260200190815260200160002060000160009054906101000a900460ff165b611013576040517f08c379a000000000000000000000000000000000000000000000000000000000815260040161100a9061231d565b60405180910390fd5b600580811115611026576110256116a6565b5b600260009054906101000a900460ff166005811115611048576110476116a6565b5b14611088576040517f08c379a000000000000000000000000000000000000000000000000000000000815260040161107f906123af565b60405180910390fd5b600154905090565b6110986113a2565b600260058111156110ac576110ab6116a6565b5b600260009054906101000a900460ff1660058111156110ce576110cd6116a6565b5b1461110e576040517f08c379a000000000000000000000000000000000000000000000000000000000815260040161110590612441565b60405180910390fd5b6003600260006101000a81548160ff02191690836005811115611134576111336116a6565b5b02179055507f0a97a4ee45751e2abf3e4fc8946939630b11b371ea8ae39ccdc3056e98f5cc3f6002600360405161116c92919061215e565b60405180910390a1565b61117e6113a2565b600073ffffffffffffffffffffffffffffffffffffffff168173ffffffffffffffffffffffffffffffffffffffff16036111ed576040517f08c379a00000000000000000000000000000000000000000000000000000000081526004016111e4906124d3565b60405180910390fd5b6111f681611420565b50565b6112016113a2565b60006005811115611215576112146116a6565b5b600260009054906101000a900460ff166005811115611237576112366116a6565b5b14611277576040517f08c379a000000000000000000000000000000000000000000000000000000000815260040161126e90612565565b60405180910390fd5b60011515600460008373ffffffffffffffffffffffffffffffffffffffff1673ffffffffffffffffffffffffffffffffffffffff16815260200190815260200160002060000160009054906101000a900460ff1615150361130d576040517f08c379a0000000000000000000000000000000000000000000000000000000008152600401611304906125d1565b60405180910390fd5b6001600460008373ffffffffffffffffffffffffffffffffffffffff1673ffffffffffffffffffffffffffffffffffffffff16815260200190815260200160002060000160006101000a81548160ff0219169083151502179055507fb6be2187d059cc2a55fe29e0e503b566e1e0f8c8780096e185429350acffd3dd81604051611397919061168b565b60405180910390a150565b6113aa6114e4565b73ffffffffffffffffffffffffffffffffffffffff166113c8610934565b73ffffffffffffffffffffffffffffffffffffffff161461141e576040517f08c379a00000000000000000000000000000000000000000000000000000000081526004016114159061263d565b60405180910390fd5b565b60008060009054906101000a900473ffffffffffffffffffffffffffffffffffffffff169050816000806101000a81548173ffffffffffffffffffffffffffffffffffffffff021916908373ffffffffffffffffffffffffffffffffffffffff1602179055508173ffffffffffffffffffffffffffffffffffffffff168173ffffffffffffffffffffffffffffffffffffffff167f8be0079c531659141344cd1fd0a4f28419497f9722a3daafe3b4186f6b6457e060405160405180910390a35050565b600033905090565b604051806040016040528060608152602001600081525090565b6040518060600160405280600015158152602001600015158152602001600081525090565b600080fd5b600080fd5b6000819050919050565b61154881611535565b811461155357600080fd5b50565b6000813590506115658161153f565b92915050565b6000602082840312156115815761158061152b565b5b600061158f84828501611556565b91505092915050565b600080fd5b600080fd5b600080fd5b60008083601f8401126115bd576115bc611598565b5b8235905067ffffffffffffffff8111156115da576115d961159d565b5b6020830191508360018202830111156115f6576115f56115a2565b5b9250929050565b600080602083850312156116145761161361152b565b5b600083013567ffffffffffffffff81111561163257611631611530565b5b61163e858286016115a7565b92509250509250929050565b600073ffffffffffffffffffffffffffffffffffffffff82169050919050565b60006116758261164a565b9050919050565b6116858161166a565b82525050565b60006020820190506116a0600083018461167c565b92915050565b7f4e487b7100000000000000000000000000000000000000000000000000000000600052602160045260246000fd5b600681106116e6576116e56116a6565b5b50565b60008190506116f7826116d5565b919050565b6000611707826116e9565b9050919050565b611717816116fc565b82525050565b6000602082019050611732600083018461170e565b92915050565b600081519050919050565b600082825260208201905092915050565b60005b83811015611772578082015181840152602081019050611757565b60008484015250505050565b6000601f19601f8301169050919050565b600061179a82611738565b6117a48185611743565b93506117b4818560208601611754565b6117bd8161177e565b840191505092915050565b6117d181611535565b82525050565b600060408301600083015184820360008601526117f4828261178f565b915050602083015161180960208601826117c8565b508091505092915050565b6000602082019050818103600083015261182e81846117d7565b905092915050565b61183f8161166a565b811461184a57600080fd5b50565b60008135905061185c81611836565b92915050565b6000602082840312156118785761187761152b565b5b60006118868482850161184d565b91505092915050565b60008115159050919050565b6118a48161188f565b82525050565b6060820160008201516118c0600085018261189b565b5060208201516118d3602085018261189b565b5060408201516118e660408501826117c8565b50505050565b600060608201905061190160008301846118aa565b92915050565b61191081611535565b82525050565b600060208201905061192b6000830184611907565b92915050565b600082825260208201905092915050565b7f596f75277265206e6f74206120766f7465720000000000000000000000000000600082015250565b6000611978601283611931565b915061198382611942565b602082019050919050565b600060208201905081810360008301526119a78161196b565b9050919050565b7f566f74696e672073657373696f6e20686176656e74207374617274656420796560008201527f7400000000000000000000000000000000000000000000000000000000000000602082015250565b6000611a0a602183611931565b9150611a15826119ae565b604082019050919050565b60006020820190508181036000830152611a39816119fd565b9050919050565b7f596f75206861766520616c726561647920766f74656400000000000000000000600082015250565b6000611a76601683611931565b9150611a8182611a40565b602082019050919050565b60006020820190508181036000830152611aa581611a69565b9050919050565b7f50726f706f73616c206e6f7420666f756e640000000000000000000000000000600082015250565b6000611ae2601283611931565b9150611aed82611aac565b602082019050919050565b60006020820190508181036000830152611b1181611ad5565b9050919050565b7f4e487b7100000000000000000000000000000000000000000000000000000000600052603260045260246000fd5b7f4e487b7100000000000000000000000000000000000000000000000000000000600052601160045260246000fd5b6000611b8182611535565b91507fffffffffffffffffffffffffffffffffffffffffffffffffffffffffffffffff8203611bb357611bb2611b47565b5b600182019050919050565b6000604082019050611bd3600083018561167c565b611be06020830184611907565b9392505050565b7f50726f706f73616c7320617265206e6f7420616c6c6f77656420796574000000600082015250565b6000611c1d601d83611931565b9150611c2882611be7565b602082019050919050565b60006020820190508181036000830152611c4c81611c10565b9050919050565b50565b6000611c63600083611931565b9150611c6e82611c53565b600082019050919050565b60006020820190508181036000830152611c9281611c56565b9050919050565b82818337600083830152505050565b6000611cb48385611931565b9350611cc1838584611c99565b611cca8361177e565b840190509392505050565b60006020820190508181036000830152611cf0818486611ca8565b90509392505050565b7f566f7573206e6520706f7576657a20706173206e65207269656e2070726f706f60008201527f7365720000000000000000000000000000000000000000000000000000000000602082015250565b6000611d55602383611931565b9150611d6082611cf9565b604082019050919050565b60006020820190508181036000830152611d8481611d48565b9050919050565b7f4e487b7100000000000000000000000000000000000000000000000000000000600052604160045260246000fd5b7f4e487b7100000000000000000000000000000000000000000000000000000000600052602260045260246000fd5b60006002820490506001821680611e0157607f821691505b602082108103611e1457611e13611dba565b5b50919050565b60008190508160005260206000209050919050565b60006020601f8301049050919050565b600082821b905092915050565b600060088302611e7c7fffffffffffffffffffffffffffffffffffffffffffffffffffffffffffffffff82611e3f565b611e868683611e3f565b95508019841693508086168417925050509392505050565b6000819050919050565b6000611ec3611ebe611eb984611535565b611e9e565b611535565b9050919050565b6000819050919050565b611edd83611ea8565b611ef1611ee982611eca565b848454611e4c565b825550505050565b600090565b611f06611ef9565b611f11818484611ed4565b505050565b5b81811015611f3557611f2a600082611efe565b600181019050611f17565b5050565b601f821115611f7a57611f4b81611e1a565b611f5484611e2f565b81016020851015611f63578190505b611f77611f6f85611e2f565b830182611f16565b50505b505050565b600082821c905092915050565b6000611f9d60001984600802611f7f565b1980831691505092915050565b6000611fb68383611f8c565b9150826002028217905092915050565b611fcf82611738565b67ffffffffffffffff811115611fe857611fe7611d8b565b5b611ff28254611de9565b611ffd828285611f39565b600060209050601f831160018114612030576000841561201e578287015190505b6120288582611faa565b865550612090565b601f19841661203e86611e1a565b60005b8281101561206657848901518255600182019150602085019450602081019050612041565b86831015612083578489015161207f601f891682611f8c565b8355505b6001600288020188555050505b505050505050565b60006120a382611535565b91506120ae83611535565b92508282039050818111156120c6576120c5611b47565b5b92915050565b7f43757272656e7420737461747573206973206e6f7420766f74696e672073657360008201527f73696f6e20656e64656400000000000000000000000000000000000000000000602082015250565b6000612128602a83611931565b9150612133826120cc565b604082019050919050565b600060208201905081810360008301526121578161211b565b9050919050565b6000604082019050612173600083018561170e565b612180602083018461170e565b9392505050565b7f5265676973746572696e672070726f706f73616c732063616e7420626520737460008201527f6172746564206e6f770000000000000000000000000000000000000000000000602082015250565b60006121e3602983611931565b91506121ee82612187565b604082019050919050565b60006020820190508181036000830152612212816121d6565b9050919050565b7f5265676973746572696e672070726f706f73616c7320686176656e742073746160008201527f7274656420796574000000000000000000000000000000000000000000000000602082015250565b6000612275602883611931565b915061228082612219565b604082019050919050565b600060208201905081810360008301526122a481612268565b9050919050565b7f796f7520617265206e65697468657220746865206f776e6572206e6f7220612060008201527f766f746572000000000000000000000000000000000000000000000000000000602082015250565b6000612307602583611931565b9150612312826122ab565b604082019050919050565b60006020820190508181036000830152612336816122fa565b9050919050565b7f43757272656e7420737461747573206973206e6f742074616c6c69656420766f60008201527f7465000000000000000000000000000000000000000000000000000000000000602082015250565b6000612399602283611931565b91506123a48261233d565b604082019050919050565b600060208201905081810360008301526123c88161238c565b9050919050565b7f5265676973746572696e672070726f706f73616c73207068617365206973206e60008201527f6f742066696e6973686564000000000000000000000000000000000000000000602082015250565b600061242b602b83611931565b9150612436826123cf565b604082019050919050565b6000602082019050818103600083015261245a8161241e565b9050919050565b7f4f776e61626c653a206e6577206f776e657220697320746865207a65726f206160008201527f6464726573730000000000000000000000000000000000000000000000000000602082015250565b60006124bd602683611931565b91506124c882612461565b604082019050919050565b600060208201905081810360008301526124ec816124b0565b9050919050565b7f566f7465727320726567697374726174696f6e206973206e6f74206f70656e2060008201527f7965740000000000000000000000000000000000000000000000000000000000602082015250565b600061254f602383611931565b915061255a826124f3565b604082019050919050565b6000602082019050818103600083015261257e81612542565b9050919050565b7f416c726561647920726567697374657265640000000000000000000000000000600082015250565b60006125bb601283611931565b91506125c682612585565b602082019050919050565b600060208201905081810360008301526125ea816125ae565b9050919050565b7f4f776e61626c653a2063616c6c6572206973206e6f7420746865206f776e6572600082015250565b6000612627602083611931565b9150612632826125f1565b602082019050919050565b600060208201905081810360008301526126568161261a565b905091905056fea2646970667358221220e8cca3133fc265825df3229c804802fb3a04a0792558e6a67d9dda6926e7723864736f6c63430008120033",
  "immutableReferences": {},
  "source": "// SPDX-License-Identifier: MIT\n\npragma solidity ^0.8.13;\n\nimport \"../node_modules/@openzeppelin/contracts/access/Ownable.sol\";\n\ncontract Voting is Ownable {\n    uint256 winningProposalID;\n\n    struct Voter {\n        bool isRegistered;\n        bool hasVoted;\n        uint256 votedProposalId;\n    }\n\n    struct Proposal {\n        string description;\n        uint256 voteCount;\n    }\n\n    enum WorkflowStatus {\n        RegisteringVoters,\n        ProposalsRegistrationStarted,\n        ProposalsRegistrationEnded,\n        VotingSessionStarted,\n        VotingSessionEnded,\n        VotesTallied\n    }\n\n    // ::::::::::::: STATE ::::::::::::: //\n\n    WorkflowStatus public workflowStatus;\n    Proposal[] proposalsArray;\n    mapping(address => Voter) voters;\n\n    event VoterRegistered(address voterAddress);\n    event WorkflowStatusChange(\n        WorkflowStatus previousStatus,\n        WorkflowStatus newStatus\n    );\n    event ProposalRegistered(uint256 proposalId);\n    event Voted(address voter, uint256 proposalId);\n\n    modifier onlyVoters() {\n        require(voters[msg.sender].isRegistered, \"You're not a voter\");\n        _;\n    }\n\n    // ::::::::::::: CONSTRUCTOR ::::::::::::: //\n\n    /**\n     * @dev Initialise le contrat en crant le premier votant (le propritaire du contrat).\n     * @notice Comme prcis dans la consigne, il faut que le propritaire du contrat puisse\n     * aussi voir la proposition gagnante  la fin du vote (le \"tout le monde\"):\n     * winningProposalID est publique mais pour accder  la description et au nombre de voix de la\n     * proposition gagnante, il faut tre votant.\n     * Ceci est une scurit de la fonction getOneProposal() qui ne peut tre appele que par un votant.\n     * Autant donc que le propritaire du contrat soit aussi votant ds le dploiement du contrat.\n     * Je pense aussi que le propritaire du contrat doit pouvoir voir toutes les propositions, tout\n     * comme les autres votants, afin de dcider de ne pas avancer dans le workflow si il y a des abus.\n     */\n    constructor() {\n        // add owner as voter\n        voters[msg.sender].isRegistered = true;\n        emit VoterRegistered(msg.sender);\n    }\n\n    // ::::::::::::: GETTERS ::::::::::::: //\n\n    /**\n     * @dev Rcupre les informations d'un votant enregistr.\n     * @param _addr Adresse du votant.\n     * @notice Cette fonction ne peut tre appele que par un votant.\n     * @return Voter Les informations du votant.\n     */\n\n    function getVoter(\n        address _addr\n    ) external view onlyVoters returns (Voter memory) {\n        return voters[_addr];\n    }\n\n    /**\n     * @dev Rcupre les informations d'une proposition enregistre.\n     * @param _id Identifiant de la proposition.\n     * @notice Cette fonction ne peut tre appele que par un votant.\n     * @return Proposal Les informations de la proposition.\n     */\n\n    function getOneProposal(\n        uint256 _id\n    ) external view onlyVoters returns (Proposal memory) {\n        return proposalsArray[_id];\n    }\n\n    // :::::::::::::ENREGISTREMENT DES VOTANTS ::::::::::::: //\n\n    /**\n     * @dev Ajoute un votant  la liste des votants.\n     * @param _addr Adresse du votant  ajouter.\n     * @notice Cette fonction ne peut tre appele que par le propritaire du contrat.\n     */\n\n    function addVoter(address _addr) external onlyOwner {\n        require(\n            workflowStatus == WorkflowStatus.RegisteringVoters,\n            \"Voters registration is not open yet\"\n        );\n        require(voters[_addr].isRegistered != true, \"Already registered\");\n\n        voters[_addr].isRegistered = true;\n        emit VoterRegistered(_addr);\n    }\n\n    // ::::::::::::: ENREGISTREMENT DES PROPOSITIONS ::::::::::::: //\n\n    /**\n     * @dev Ajoute une proposition  la liste des propositions.\n     * @param _desc Description de la proposition  ajouter.\n     * @notice Cette fonction ne peut tre appele que par un votant.\n     */\n\n    function addProposal(string calldata _desc) external onlyVoters {\n        require(\n            workflowStatus == WorkflowStatus.ProposalsRegistrationStarted,\n            \"Proposals are not allowed yet\"\n        );\n        require(\n            keccak256(abi.encode(_desc)) != keccak256(abi.encode(\"\")),\n            \"Vous ne pouvez pas ne rien proposer\"\n        ); // facultatif\n        // voir que desc est different des autres\n\n        Proposal memory proposal;\n        proposal.description = _desc;\n        proposalsArray.push(proposal);\n        emit ProposalRegistered(proposalsArray.length - 1);\n    }\n\n    // ::::::::::::: VOTE ::::::::::::: //\n\n    /**\n     * @dev Permet  un votant de voter pour une proposition.\n     * @param _proposalId L'ID de la proposition pour laquelle le votant veut voter.\n     * @notice Le votant doit avoir le statut de votant et la session de vote doit tre ouverte.\n     * @notice Le votant ne peut voter qu'une seule fois et doit voter pour une proposition existante.\n     * @notice Cette fonction met  jour le vote du votant, le vote de la proposition, et met  jour l'ID\n     * de la proposition gagnante  chaque vote: ceci afin d'viter de boucler sur proposalsArray lors de tallyvotes()\n     * pour se prmunir de l'attaque DoS Gas Limit.\n     */\n\n    function setVote(uint256 _proposalId) external onlyVoters {\n        require(\n            workflowStatus == WorkflowStatus.VotingSessionStarted,\n            \"Voting session havent started yet\"\n        );\n        require(voters[msg.sender].hasVoted != true, \"You have already voted\");\n        require(_proposalId < proposalsArray.length, \"Proposal not found\");\n\n        voters[msg.sender].votedProposalId = _proposalId;\n        voters[msg.sender].hasVoted = true;\n        proposalsArray[_proposalId].voteCount++;\n\n        if (\n            proposalsArray[_proposalId].voteCount >\n            proposalsArray[winningProposalID].voteCount\n        ) {\n            winningProposalID = _proposalId;\n        }\n\n        emit Voted(msg.sender, _proposalId);\n    }\n\n    // ::::::::::::: SESSION D'ENREGISTREMENT DES PROPOSITIONS ::::::::::::: //\n\n    /**\n     * @dev Dmarre l'enregistrement des propositions.\n     * @notice Cette fonction ne peut tre appele que par le propritaire du contrat.\n     * @notice Le statut de workflow doit tre \"enregistrement des votants\".\n     * @notice Cette fonction cre une proposition initiale avec la description \"GENESIS\".\n     */\n\n    function startProposalsRegistering() external onlyOwner {\n        require(\n            workflowStatus == WorkflowStatus.RegisteringVoters,\n            \"Registering proposals cant be started now\"\n        );\n        workflowStatus = WorkflowStatus.ProposalsRegistrationStarted;\n\n        Proposal memory proposal;\n        proposal.description = \"GENESIS\";\n        proposalsArray.push(proposal);\n\n        emit WorkflowStatusChange(\n            WorkflowStatus.RegisteringVoters,\n            WorkflowStatus.ProposalsRegistrationStarted\n        );\n    }\n\n    /**\n     * @dev Termine l'enregistrement des propositions.\n     * @notice Cette fonction ne peut tre appele que par le propritaire du contrat.\n     * @notice Le statut de workflow doit tre \"enregistrement des propositions\".\n     */\n\n    function endProposalsRegistering() external onlyOwner {\n        require(\n            workflowStatus == WorkflowStatus.ProposalsRegistrationStarted,\n            \"Registering proposals havent started yet\"\n        );\n        workflowStatus = WorkflowStatus.ProposalsRegistrationEnded;\n        emit WorkflowStatusChange(\n            WorkflowStatus.ProposalsRegistrationStarted,\n            WorkflowStatus.ProposalsRegistrationEnded\n        );\n    }\n\n    // ::::::::::::: SESSION DE VOTE ::::::::::::: //\n\n    /**\n     * @dev Dmarre la session de vote.\n     * @notice Cette fonction ne peut tre appele que par le propritaire du contrat.\n     * @notice Le statut de workflow doit tre \"enregistrement des propositions termin\".\n     */\n\n    function startVotingSession() external onlyOwner {\n        require(\n            workflowStatus == WorkflowStatus.ProposalsRegistrationEnded,\n            \"Registering proposals phase is not finished\"\n        );\n        workflowStatus = WorkflowStatus.VotingSessionStarted;\n        emit WorkflowStatusChange(\n            WorkflowStatus.ProposalsRegistrationEnded,\n            WorkflowStatus.VotingSessionStarted\n        );\n    }\n\n    /**\n     * @dev Termine la session de vote et calcule le gagnant.\n     * @notice Cette fonction ne peut tre appele que par le propritaire du contrat.\n     * @notice Le statut de workflow doit tre \"session de vote commence\".\n     * @notice Le gagnant est la proposition qui a obtenu le plus de votes.\n     */\n\n    function endVotingSession() external onlyOwner {\n        require(\n            workflowStatus == WorkflowStatus.VotingSessionStarted,\n            \"Voting session havent started yet\"\n        );\n        workflowStatus = WorkflowStatus.VotingSessionEnded;\n        emit WorkflowStatusChange(\n            WorkflowStatus.VotingSessionStarted,\n            WorkflowStatus.VotingSessionEnded\n        );\n    }\n\n    // ::::::::::::: DECOMPTE DES VOIX ::::::::::::: //\n\n    /**\n     * @dev Cette fonction stoppe la session de vote.\n     * @notice Cette fonction ne peut tre appele que par le propritaire du contrat\n     * @notice Le statut de workflow doit tre \"session de vote termine\"\n     * @notice Il suffit de lire winningProposalID pour obtenir l'ID de la proposition gagnante.\n     */\n    function tallyVotes() external onlyOwner {\n        require(\n            workflowStatus == WorkflowStatus.VotingSessionEnded,\n            \"Current status is not voting session ended\"\n        );\n        workflowStatus = WorkflowStatus.VotesTallied;\n\n        emit WorkflowStatusChange(\n            WorkflowStatus.VotingSessionEnded,\n            WorkflowStatus.VotesTallied\n        );\n    }\n    /** \n     * @notice Retourne la proposition gagnante\n     * @return Id de la proposition\n    */\n    function getWinningProposalID()\n        external\n        view\n        returns (uint256 )\n    {\n        require(owner() == msg.sender || voters[msg.sender].isRegistered, \"you are neither the owner nor a voter\");   \n        require(workflowStatus == WorkflowStatus.VotesTallied, \"Current status is not tallied vote\");   \n        return winningProposalID;\n    }\n}\n",
  "sourcePath": "/home/sjouany/Project3Alyra/alyra-dapp-voting/truffle/contracts/Voting.sol",
  "compiler": {
    "name": "solc",
    "version": "0.8.18+commit.87f61d96.Emscripten.clang"
  },
  "schemaVersion": "3.4.11",
  "updatedAt": "2023-03-17T22:57:05.273Z",
  "networkType": "ethereum",
  "devdoc": {
    "kind": "dev",
    "methods": {
      "addProposal(string)": {
        "details": "Ajoute une proposition  la liste des propositions.",
        "params": {
          "_desc": "Description de la proposition  ajouter."
        }
      },
      "addVoter(address)": {
        "details": "Ajoute un votant  la liste des votants.",
        "params": {
          "_addr": "Adresse du votant  ajouter."
        }
      },
      "constructor": {
        "details": "Initialise le contrat en crant le premier votant (le propritaire du contrat)."
      },
      "endProposalsRegistering()": {
        "details": "Termine l'enregistrement des propositions."
      },
      "endVotingSession()": {
        "details": "Termine la session de vote et calcule le gagnant."
      },
      "getOneProposal(uint256)": {
        "details": "Rcupre les informations d'une proposition enregistre.",
        "params": {
          "_id": "Identifiant de la proposition."
        },
        "returns": {
          "_0": "Proposal Les informations de la proposition."
        }
      },
      "getVoter(address)": {
        "details": "Rcupre les informations d'un votant enregistr.",
        "params": {
          "_addr": "Adresse du votant."
        },
        "returns": {
          "_0": "Voter Les informations du votant."
        }
      },
      "getWinningProposalID()": {
        "returns": {
          "_0": "Id de la proposition"
        }
      },
      "owner()": {
        "details": "Returns the address of the current owner."
      },
      "renounceOwnership()": {
        "details": "Leaves the contract without owner. It will not be possible to call `onlyOwner` functions anymore. Can only be called by the current owner. NOTE: Renouncing ownership will leave the contract without an owner, thereby removing any functionality that is only available to the owner."
      },
      "setVote(uint256)": {
        "details": "Permet  un votant de voter pour une proposition.",
        "params": {
          "_proposalId": "L'ID de la proposition pour laquelle le votant veut voter."
        }
      },
      "startProposalsRegistering()": {
        "details": "Dmarre l'enregistrement des propositions."
      },
      "startVotingSession()": {
        "details": "Dmarre la session de vote."
      },
      "tallyVotes()": {
        "details": "Cette fonction stoppe la session de vote."
      },
      "transferOwnership(address)": {
        "details": "Transfers ownership of the contract to a new account (`newOwner`). Can only be called by the current owner."
      }
    },
    "version": 1
  },
  "userdoc": {
    "kind": "user",
    "methods": {
      "addProposal(string)": {
        "notice": "Cette fonction ne peut tre appele que par un votant."
      },
      "addVoter(address)": {
        "notice": "Cette fonction ne peut tre appele que par le propritaire du contrat."
      },
      "constructor": {
        "notice": "Comme prcis dans la consigne, il faut que le propritaire du contrat puisse aussi voir la proposition gagnante  la fin du vote (le \"tout le monde\"): winningProposalID est publique mais pour accder  la description et au nombre de voix de la proposition gagnante, il faut tre votant. Ceci est une scurit de la fonction getOneProposal() qui ne peut tre appele que par un votant. Autant donc que le propritaire du contrat soit aussi votant ds le dploiement du contrat. Je pense aussi que le propritaire du contrat doit pouvoir voir toutes les propositions, tout comme les autres votants, afin de dcider de ne pas avancer dans le workflow si il y a des abus."
      },
      "endProposalsRegistering()": {
        "notice": "Cette fonction ne peut tre appele que par le propritaire du contrat.Le statut de workflow doit tre \"enregistrement des propositions\"."
      },
      "endVotingSession()": {
        "notice": "Cette fonction ne peut tre appele que par le propritaire du contrat.Le statut de workflow doit tre \"session de vote commence\".Le gagnant est la proposition qui a obtenu le plus de votes."
      },
      "getOneProposal(uint256)": {
        "notice": "Cette fonction ne peut tre appele que par un votant."
      },
      "getVoter(address)": {
        "notice": "Cette fonction ne peut tre appele que par un votant."
      },
      "getWinningProposalID()": {
        "notice": "Retourne la proposition gagnante"
      },
      "setVote(uint256)": {
        "notice": "Le votant doit avoir le statut de votant et la session de vote doit tre ouverte.Le votant ne peut voter qu'une seule fois et doit voter pour une proposition existante.Cette fonction met  jour le vote du votant, le vote de la proposition, et met  jour l'ID de la proposition gagnante  chaque vote: ceci afin d'viter de boucler sur proposalsArray lors de tallyvotes() pour se prmunir de l'attaque DoS Gas Limit."
      },
      "startProposalsRegistering()": {
        "notice": "Cette fonction ne peut tre appele que par le propritaire du contrat.Le statut de workflow doit tre \"enregistrement des votants\".Cette fonction cre une proposition initiale avec la description \"GENESIS\"."
      },
      "startVotingSession()": {
        "notice": "Cette fonction ne peut tre appele que par le propritaire du contrat.Le statut de workflow doit tre \"enregistrement des propositions termin\"."
      },
      "tallyVotes()": {
        "notice": "Cette fonction ne peut tre appele que par le propritaire du contratLe statut de workflow doit tre \"session de vote termine\"Il suffit de lire winningProposalID pour obtenir l'ID de la proposition gagnante."
      }
    },
    "version": 1
  }
}